:100000000C942A000C943F000C943F000C943F0089
:100010000C943F000C943F000C943F000C943F0064
:100020000C943F000C943F000C943F000C943F0054
:100030000C943F000C943F000C943F000C943F0044
:100040000C943F000C943F000C943F000C943F0034
:100050000C943F0011241FBECFE5D8E0DEBFCDBF1A
:1000600010E0A0E6B0E0EEECFBE002C005900D92DF
:10007000AE38B107D9F70E940C030C94E5050C9437
:100080000000813001F130F08230B1F1833009F4A9
:100090004CC00895413059F42AB381E090E002C089
:1000A000880F991F6A95E2F7822B8ABB08952AB3BD
:1000B00081E090E002C0880F991F6A95E2F7809571
:1000C00082238ABB0895413059F427B381E090E040
:1000D00002C0880F991F6A95E2F7822B87BB0895AB
:1000E00027B381E090E002C0880F991F6A95E2F77C
:1000F0008095822387BB0895413059F424B381E071
:1001000090E002C0880F991F6A95E2F7822B84BBAA
:10011000089524B381E090E002C0880F991F6A958A
:10012000E2F78095822384BB0895413059F421B3CE
:1001300081E090E002C0880F991F6A95E2F7822B58
:1001400081BB089521B381E090E002C0880F991F20
:100150006A95E2F78095822381BB0895813001F191
:1001600030F08230B1F1833009F44CC00895413051
:1001700059F42BB381E090E002C0880F991F6A9573
:10018000E2F7822B8BBB08952BB381E090E002C095
:10019000880F991F6A95E2F7809582238BBB08959B
:1001A000413059F428B381E090E002C0880F991FD4
:1001B0006A95E2F7822B88BB089528B381E090E02E
:1001C00002C0880F991F6A95E2F78095822388BB49
:1001D0000895413059F425B381E090E002C0880FC2
:1001E000991F6A95E2F7822B85BB089525B381E0BC
:1001F00090E002C0880F991F6A95E2F780958223EC
:1002000085BB0895413059F422B381E090E002C0EB
:10021000880F991F6A95E2F7822B82BB089522B35B
:1002200081E090E002C0880F991F6A95E2F78095FF
:10023000822382BB0895813089F028F08230C9F092
:10024000833011F1089589B390E002C095958795A8
:100250006A95E2F78170FA018083089586B390E091
:1002600002C0959587956A95E2F78170FA018083BF
:10027000089583B390E002C0959587956A95E2F75B
:100280008170FA018083089580B390E002C0959553
:1002900087956A95E2F78170FA018083089540E0BE
:1002A00063E082E00E94410040E064E082E00E945E
:1002B000410040E065E082E00E94410040E066E0ED
:1002C00082E00E94410041E063E082E00E94AE00D3
:1002D00041E064E082E00E94AE0041E065E082E03F
:1002E0000E94AE0041E066E082E00E94AE0041E084
:1002F00060E082E00E94410041E061E082E00E9413
:10030000410041E062E082E00E94410041E063E0A0
:1003100083E00E94410041E060E082E00E94AE0084
:1003200041E061E082E00E94AE0041E062E082E0F4
:100330000E94AE0041E063E083E00E94AE000895B9
:100340006F927F928F929F92AF92BF92CF92DF92E5
:10035000EF92FF920F931F93CF93DF93CDB7DEB74A
:10036000A1970FB6F894DEBF0FBECDBF5C0182E04F
:1003700089838A838B8393E09C831D8221E02E8373
:100380008F83988789878A878B878C879D8784E06E
:100390008E8785E08F8786E0888B80E1E0E6F0E05D
:1003A000DE01519601900D928A95E1F7812C56C09D
:1003B000C82CD12CE5E0F0E0EC0FFD1FEC0DFD1D8D
:1003C0006080E1E0F0E0EC0FFD1FEC0DFD1D7080A2
:1003D00040E0662D872D0E94AE0010E037C0E12E70
:1003E000F12CEDE0F0E0EC0FFD1FEE0DFF1D0081A4
:1003F000E9E0F0E0EC0FFD1FEE0DFF1D9080AE0177
:100400004F5D5F4F602F892D0E941B0189A18111D3
:100410001CC007C0AE014F5D5F4F602F892D0E9449
:100420001B0189A18823B1F3EE0CFF1CEE0CFF1C0D
:1004300081E090E08C0F9D1FE80EF91EF701EC0D96
:10044000FD1D8089F50180830DC01F5F143038F2D7
:1004500041E0662D872D0E94AE008394F3E0F815ED
:1004600008F0A6CFA1960FB6F894DEBF0FBECDBFA1
:10047000DF91CF911F910F91FF90EF90DF90CF9080
:10048000BF90AF909F908F907F906F90089541E0C4
:1004900062E080E00E94AE008FE99FE00197F1F7F3
:1004A00000C0000040E062E080E00E94AE000895DD
:1004B000CF93C82F482F417063E080E00E94AE00C8
:1004C000C1FB442740F964E080E00E94AE00C2FB1B
:1004D000442740F965E080E00E94AE00C3FB44275A
:1004E00040F966E080E00E94AE000E944702CF9192
:1004F0000895CF93C82F40E060E080E00E94AE00F6
:100500008C2F82958F700E9458028C2F0E94580267
:10051000CF91089541E063E080E00E94410041E016
:1005200064E080E00E94410041E065E080E00E94DC
:10053000410041E066E080E00E94410041E060E06F
:1005400080E00E94410041E061E080E00E944100C3
:1005500041E062E080E00E94410040E060E080E035
:100560000E94AE0040E061E080E00E94AE002FEF0C
:1005700083EF91E0215080409040E1F700C00000FF
:1005800082E20E94790288E00E94580287EC90E0A3
:100590000197F1F700C000008CE00E94790287EC1F
:1005A00090E00197F1F700C0000081E00E9479021D
:1005B0008FE39FE10197F1F700C0000086E00E9401
:1005C00079020895CF93C82F41E060E080E00E9457
:1005D000AE008C2F82958F700E9458028C2F0E9443
:1005E0005802CF9108950F931F93CF938C01FC0174
:1005F0008081C0E007C00E94E202CF5FF801EC0FEB
:10060000F11D80818111F7CFCF911F910F91089536
:1006100081E00E9479020895CF93DF931F92CDB7B6
:10062000DEB78AE0898341E065E083E00E94410013
:100630000E944F010E946A030E948A0280E790E0B4
:100640000E94F30242E350E060E070E080E291E457
:100650000E947D03CE0101960E94A00189818A300B
:10066000C9F3823369F08333A1F08133D9F442E3D3
:1006700050E060E070E080EF90E40E947D0327C0CE
:1006800042E350E060E070E080E291E40E947D038C
:100690001EC042E350E060E070E080EA90E40E9417
:1006A0007D0315C00E9408038FE790E00E94F302CB
:1006B0002FEF83ED90E3215080409040E1F700C0A0
:1006C00000000E94080380E790E00E94F3028AE0A5
:1006D0008983C0CF8FB58F7B8FBD8FB580688FBD6D
:1006E0008FB58E7F8FBD8FB582608FBD8EB58860D0
:1006F0008EBD8EB580618EBD0895CF92DF92EF9250
:10070000FF926B017C019A0140E050E060E970EDDE
:1007100083E090E00E94C3052150310937BD26BD1A
:1007200066B577B56F5F7F4F80E090E00E94C804A8
:10073000A70196010E94560520E030E048EC52E403
:100740000E94270420E030E040E85FE30E94BA0303
:100750000E9499047BBD6ABD8EB581608EBD8EB549
:1007600082608EBD8EB58B7F8EBDFF90EF90DF9047
:10077000CF9008955058BB27AA270E94D2030C940B
:100780001C050E940E0538F00E94150520F039F472
:100790009F3F19F426F40C940B050EF4E095E7FB4B
:1007A0000C940505E92F0E942D0558F3BA1762072E
:1007B00073078407950720F079F4A6F50C944F058C
:1007C0000EF4E0950B2EBA2FA02D0B01B90190016C
:1007D0000C01CA01A0011124FF27591B99F0593FB0
:1007E00050F4503E68F11A16F040A22F232F342FF8
:1007F0004427585FF3CF469537952795A795F04046
:100800005395C9F77EF41F16BA0B620B730B840B5A
:10081000BAF09150A1F0FF0FBB1F661F771F881F12
:10082000C2F70EC0BA0F621F731F841F48F487956A
:1008300077956795B795F7959E3F08F0B0CF93955C
:10084000880F08F09927EE0F9795879508950E94D5
:100850003B040C941C050E94150558F00E940E05DF
:1008600040F029F45F3F29F00C94050551110C94D8
:1008700050050C940B050E942D0568F39923B1F3E4
:10088000552391F3951B550BBB27AA2762177307B6
:10089000840738F09F5F5F4F220F331F441FAA1F4A
:1008A000A9F335D00E2E3AF0E0E832D09150504006
:1008B000E695001CCAF72BD0FE2F29D0660F771FB4
:1008C000881FBB1F261737074807AB07B0E809F09A
:1008D000BB0B802DBF01FF2793585F4F3AF09E3F1F
:1008E000510578F00C9405050C9450055F3FE4F336
:1008F000983ED4F3869577956795B795F7959F5F62
:10090000C9F7880F911D9695879597F90895E1E0AD
:10091000660F771F881FBB1F621773078407BA070C
:1009200020F0621B730B840BBA0BEE1F88F7E09567
:1009300008950E94350588F09F5798F0B92F9927A0
:10094000B751B0F0E1F0660F771F881F991F1AF0BA
:10095000BA95C9F714C0B13091F00E944F05B1E0CB
:1009600008950C944F05672F782F8827B85F39F0CA
:10097000B93FCCF3869577956795B395D9F73EF453
:1009800090958095709561957F4F8F4F9F4F0895FB
:10099000E89409C097FB3EF4909580957095619519
:1009A0007F4F8F4F9F4F9923A9F0F92F96E9BB27CF
:1009B0009395F695879577956795B795F111F8CF4B
:1009C000FAF4BB0F11F460FF1BC06F5F7F4F8F4FB6
:1009D0009F4F16C0882311F096E911C0772321F0AC
:1009E0009EE8872F762F05C0662371F096E8862F44
:1009F00070E060E02AF09A95660F771F881FDAF79B
:100A0000880F9695879597F9089597F99F6780E8DD
:100A100070E060E008959FEF80EC089500240A9450
:100A20001616170618060906089500240A941216C9
:100A30001306140605060895092E0394000C11F4FC
:100A4000882352F0BB0F40F4BF2B11F460FF04C0A9
:100A50006F5F7F4F8F4F9F4F089557FD9058440F02
:100A6000551F59F05F3F71F04795880F97FB991F0D
:100A700061F09F3F79F087950895121613061406CA
:100A8000551FF2CF4695F1DF08C016161706180657
:100A9000991FF1CF86957105610508940895E89432
:100AA000BB2766277727CB0197F908950E94690530
:100AB0000C941C050E940E0538F00E94150520F0CC
:100AC000952311F00C9405050C940B0511240C943E
:100AD00050050E942D0570F3959FC1F3950F50E0CE
:100AE000551F629FF001729FBB27F00DB11D639FE0
:100AF000AA27F00DB11DAA1F649F6627B00DA11D86
:100B0000661F829F2227B00DA11D621F739FB00D2B
:100B1000A11D621F839FA00D611D221F749F33279B
:100B2000A00D611D231F849F600D211D822F762F34
:100B30006A2F11249F5750409AF0F1F088234AF011
:100B4000EE0FFF1FBB1F661F771F881F915050407D
:100B5000A9F79E3F510580F00C9405050C945005B3
:100B60005F3FE4F3983ED4F3869577956795B79504
:100B7000F795E7959F5FC1F7FE2B880F911D96951E
:100B8000879597F90895A1E21A2EAA1BBB1BFD01B8
:100B90000DC0AA1FBB1FEE1FFF1FA217B307E4075C
:100BA000F50720F0A21BB30BE40BF50B661F771FB4
:100BB000881F991F1A9469F7609570958095909594
:0E0BC0009B01AC01BD01CF010895F894FFCF59
:100BCE003132334134353642373839432A302344B3
:100BDE0031293020322939302033292D393000691E
:0E0BEE006E76616C69642063686F69636500F0
:00000001FF
