:100000000C9432000C9447000C9447000C94470069
:100010000C9447000C9447000C9447000C94470044
:100020000C9447000C9447000C9447000C94470034
:100030000C9447000C9447000C9447000C94470024
:100040000C9447000C9447000C9447000C94470014
:100050000C94470083009300A300B300C300D300B7
:10006000E300F30011241FBECFE5D8E0DEBFCDBF13
:1000700010E0A0E6B0E0EAE4F8E002C005900D92DE
:10008000A037B107D9F70E9421030C9423040C94E4
:100090000000813059F018F0823079F014C087B137
:1000A0008F7B87B987B18F7787B90DC087B180649F
:1000B00087B987B18F7787B906C087B1806487B960
:1000C00087B1806887B987B18F7D87B986B180682D
:1000D00086B986B18F7D86B986B1877F86B986B1AC
:1000E000846086B986B1826086B986B1816086B93E
:1000F000089590E08830910508F084C0FC01E65D29
:10010000FF4F0C94FA0387B18E7F87B987B18D7F3B
:1001100087B987B18B7F87B987B1877F87B987B167
:100120008F7E87B96FC087B1816087B987B18D7FB6
:1001300087B987B18B7F87B987B1877F87B987B147
:100140008F7E87B95FC087B18E7F87B987B18260A4
:1001500087B987B18B7F87B987B1877F87B987B127
:100160008F7E87B94FC087B1816087B987B18260C0
:1001700087B987B18B7F87B987B1877F87B987B107
:100180008F7E87B93FC087B18E7F87B987B18D7F5A
:1001900087B987B1846087B987B1877F87B987B10D
:1001A0008F7E87B92FC087B1816087B987B18D7F76
:1001B00087B987B1846087B987B1877F87B987B1ED
:1001C0008F7E87B91FC087B18E7F87B987B1826064
:1001D00087B987B1846087B987B1877F87B987B1CD
:1001E0008F7E87B90FC087B1816087B987B1826080
:1001F00087B987B1846087B987B1877F87B987B1AD
:100200008F7E87B986B1806486B9349BFECF86B174
:10021000806186B984B195B10895813001F130F0E3
:100220008230B1F1833009F44CC00895413059F463
:100230002AB381E090E002C0880F991F6A95E2F727
:10024000822B8ABB08952AB381E090E002C0880F18
:10025000991F6A95E2F7809582238ABB0895413001
:1002600059F427B381E090E002C0880F991F6A9586
:10027000E2F7822B87BB089527B381E090E002C0AC
:10028000880F991F6A95E2F78095822387BB0895AE
:10029000413059F424B381E090E002C0880F991FE7
:1002A0006A95E2F7822B84BB089524B381E090E045
:1002B00002C0880F991F6A95E2F78095822384BB5C
:1002C0000895413059F421B381E090E002C0880FD5
:1002D000991F6A95E2F7822B81BB089521B381E0D3
:1002E00090E002C0880F991F6A95E2F780958223FB
:1002F00081BB0895813001F130F08230B1F183305B
:1003000009F44CC00895413059F42BB381E090E0DA
:1003100002C0880F991F6A95E2F7822B8BBB089564
:100320002BB381E090E002C0880F991F6A95E2F735
:10033000809582238BBB0895413059F428B381E026
:1003400090E002C0880F991F6A95E2F7822B88BB64
:10035000089528B381E090E002C0880F991F6A9544
:10036000E2F78095822388BB0895413059F425B384
:1003700081E090E002C0880F991F6A95E2F7822B16
:1003800085BB089525B381E090E002C0880F991FD6
:100390006A95E2F78095822385BB0895413059F430
:1003A00022B381E090E002C0880F991F6A95E2F7BE
:1003B000822B82BB089522B381E090E002C0880FB7
:1003C000991F6A95E2F78095822382BB089541E0E8
:1003D00062E082E00E947A018FE99FE00197F1F7E5
:1003E00000C0000040E062E082E00E947A010895CF
:1003F000CF93C82F482F417063E082E00E947A01BA
:10040000C1FB442740F964E082E00E947A01C2FB0C
:10041000442740F965E082E00E947A01C3FB44274B
:1004200040F966E082E00E947A01CF910895CF936F
:10043000C82F40E060E082E00E947A0140E061E085
:1004400082E00E947A018C2F82958F700E94F801C1
:100450000E94E7018C2F0E94F8010E94E701CF91D2
:10046000089541E062E082E00E940D0141E060E019
:1004700082E00E940D0141E061E082E00E940D01F6
:1004800041E063E082E00E940D0141E064E082E02F
:100490000E940D0141E065E082E00E940D0141E013
:1004A00066E082E00E940D012FEF83EF91E0215082
:1004B00080409040E1F700C0000040E060E082E052
:1004C0000E947A0140E061E082E00E947A0182E0CD
:1004D0000E94F8010E94E70188E20E94170220EFC3
:1004E0002A95F1F78FE00E94170280EF8A95F1F7C5
:1004F00081E00E9417028FE39FE10197F1F700C0AE
:10050000000086E00E9417020895CF93C82F41E0B3
:1005100060E082E00E947A0140E061E082E00E94B7
:100520007A018C2F82958F700E94F8010E94E7015A
:100530008C2F0E94F8010E94E701CF9108950F933C
:100540001F93CF93DF938C01FC01C081D0E008C0E2
:10055000F801ED0FF11DC0818C2F0E948502DF5F35
:10056000C111F6CFDF91CF911F910F910895CF92D6
:10057000DF92EF92FF920F931F938B019C01672BE9
:10058000682B692B61F560E370E080E090E00E94E9
:10059000B70246C0DC01CB01880F991FAA1FBB1F01
:1005A0006C017D01CC0CDD1CEE1CFF1CCC0CDD1C99
:1005B000EE1CFF1CC80ED91EEA1EFB1EC901B801A5
:1005C0002AE030E040E050E00E94D8036C0D7D1D31
:1005D0008E1D9F1D022F132F242F352F04C061E085
:1005E00070E080E090E0011511052105310591F6DC
:1005F00012C02AE030E040E050E00E94D803E22E32
:10060000F32E042F152F80E3860F0E9485026E2D96
:100610007F2D802F912F613071058105910549F75C
:100620001F910F91FF90EF90DF90CF90089581E0A0
:100630000E9417028FE39FE10197F1F700C00000CD
:1006400008950E949B030E94310281E00E944900AC
:1006500040E060E080E00E940D0141E061E081E067
:100660000E940D0140E061E081E00E947A0141E0DA
:1006700062E081E00E940D0141E062E081E00E94C1
:100680007A0141E063E081E00E940D0180E00E9478
:1006900079009C01A4EFB1E00E9400046B017C0191
:1006A0000B2EBAE0F694E794D794C794BA95D1F795
:1006B000B02DE60180E690E00E949F02C701B601DE
:1006C000882799270E94B7028DE690E00E949F023A
:1006D0002FEF89E698E1215080409040E1F700C07B
:1006E00000000E941703C431D10518F40E94BA0318
:1006F000CDCFC6014597049720F482E30E94A8035A
:10070000C5CFC6014A97049720F48BE40E94A80342
:10071000BDCF2FE1C21AD10884E0C816D10420F45D
:1007200085E50E94A803B2CFA49708F4AFCF84E672
:100730000E94A803ABCF83B7806483BF83B7886070
:1007400083BF83B7806283BF83B78F7E83BF0895E3
:10075000982F80E064E670E00E94C40361506CBF93
:1007600083B7816083BF83B7826083BF83B78B7F8A
:1007700083BF089583B78E7F83BF83B78D7F83BF89
:1007800083B78B7F83BF089597FB072E16F40094E1
:1007900007D077FD09D00E940F0407FC05D03EF476
:1007A000909581959F4F0895709561957F4F08951D
:1007B000A1E21A2EAA1BBB1BFD010DC0AA1FBB1F65
:1007C000EE1FFF1FA217B307E407F50720F0A21BD7
:1007D000B30BE40BF50B661F771F881F991F1A9444
:1007E00069F760957095809590959B01AC01BD016E
:1007F000CF010895EE0FFF1F0590F491E02D0994AD
:10080000A29FB001B39FC001A39F700D811D112451
:10081000911DB29F700D811D1124911D0895AA1B79
:10082000BB1B51E107C0AA1FBB1FA617B70710F0DB
:10083000A61BB70B881F991F5A95A9F7809590950D
:0A084000BC01CD010895F894FFCF2C
:10084A0074656D70657261747572653A0043000073
:00000001FF
